{
  "contractName": "FarmToken",
  "abi": [
    {
      "inputs": [
        {
          "internalType": "address",
          "name": "_token",
          "type": "address"
        }
      ],
      "stateMutability": "nonpayable",
      "type": "constructor"
    },
    {
      "anonymous": false,
      "inputs": [
        {
          "indexed": true,
          "internalType": "address",
          "name": "owner",
          "type": "address"
        },
        {
          "indexed": true,
          "internalType": "address",
          "name": "spender",
          "type": "address"
        },
        {
          "indexed": false,
          "internalType": "uint256",
          "name": "value",
          "type": "uint256"
        }
      ],
      "name": "Approval",
      "type": "event"
    },
    {
      "anonymous": false,
      "inputs": [
        {
          "indexed": true,
          "internalType": "address",
          "name": "from",
          "type": "address"
        },
        {
          "indexed": true,
          "internalType": "address",
          "name": "to",
          "type": "address"
        },
        {
          "indexed": false,
          "internalType": "uint256",
          "name": "value",
          "type": "uint256"
        }
      ],
      "name": "Transfer",
      "type": "event"
    },
    {
      "inputs": [
        {
          "internalType": "address",
          "name": "owner",
          "type": "address"
        },
        {
          "internalType": "address",
          "name": "spender",
          "type": "address"
        }
      ],
      "name": "allowance",
      "outputs": [
        {
          "internalType": "uint256",
          "name": "",
          "type": "uint256"
        }
      ],
      "stateMutability": "view",
      "type": "function",
      "constant": true
    },
    {
      "inputs": [
        {
          "internalType": "address",
          "name": "spender",
          "type": "address"
        },
        {
          "internalType": "uint256",
          "name": "amount",
          "type": "uint256"
        }
      ],
      "name": "approve",
      "outputs": [
        {
          "internalType": "bool",
          "name": "",
          "type": "bool"
        }
      ],
      "stateMutability": "nonpayable",
      "type": "function"
    },
    {
      "inputs": [
        {
          "internalType": "address",
          "name": "account",
          "type": "address"
        }
      ],
      "name": "balanceOf",
      "outputs": [
        {
          "internalType": "uint256",
          "name": "",
          "type": "uint256"
        }
      ],
      "stateMutability": "view",
      "type": "function",
      "constant": true
    },
    {
      "inputs": [],
      "name": "decimals",
      "outputs": [
        {
          "internalType": "uint8",
          "name": "",
          "type": "uint8"
        }
      ],
      "stateMutability": "view",
      "type": "function",
      "constant": true
    },
    {
      "inputs": [
        {
          "internalType": "address",
          "name": "spender",
          "type": "address"
        },
        {
          "internalType": "uint256",
          "name": "subtractedValue",
          "type": "uint256"
        }
      ],
      "name": "decreaseAllowance",
      "outputs": [
        {
          "internalType": "bool",
          "name": "",
          "type": "bool"
        }
      ],
      "stateMutability": "nonpayable",
      "type": "function"
    },
    {
      "inputs": [
        {
          "internalType": "address",
          "name": "spender",
          "type": "address"
        },
        {
          "internalType": "uint256",
          "name": "addedValue",
          "type": "uint256"
        }
      ],
      "name": "increaseAllowance",
      "outputs": [
        {
          "internalType": "bool",
          "name": "",
          "type": "bool"
        }
      ],
      "stateMutability": "nonpayable",
      "type": "function"
    },
    {
      "inputs": [],
      "name": "name",
      "outputs": [
        {
          "internalType": "string",
          "name": "",
          "type": "string"
        }
      ],
      "stateMutability": "view",
      "type": "function",
      "constant": true
    },
    {
      "inputs": [],
      "name": "symbol",
      "outputs": [
        {
          "internalType": "string",
          "name": "",
          "type": "string"
        }
      ],
      "stateMutability": "view",
      "type": "function",
      "constant": true
    },
    {
      "inputs": [],
      "name": "token",
      "outputs": [
        {
          "internalType": "contract IERC20",
          "name": "",
          "type": "address"
        }
      ],
      "stateMutability": "view",
      "type": "function",
      "constant": true
    },
    {
      "inputs": [],
      "name": "totalSupply",
      "outputs": [
        {
          "internalType": "uint256",
          "name": "",
          "type": "uint256"
        }
      ],
      "stateMutability": "view",
      "type": "function",
      "constant": true
    },
    {
      "inputs": [
        {
          "internalType": "address",
          "name": "to",
          "type": "address"
        },
        {
          "internalType": "uint256",
          "name": "amount",
          "type": "uint256"
        }
      ],
      "name": "transfer",
      "outputs": [
        {
          "internalType": "bool",
          "name": "",
          "type": "bool"
        }
      ],
      "stateMutability": "nonpayable",
      "type": "function"
    },
    {
      "inputs": [
        {
          "internalType": "address",
          "name": "from",
          "type": "address"
        },
        {
          "internalType": "address",
          "name": "to",
          "type": "address"
        },
        {
          "internalType": "uint256",
          "name": "amount",
          "type": "uint256"
        }
      ],
      "name": "transferFrom",
      "outputs": [
        {
          "internalType": "bool",
          "name": "",
          "type": "bool"
        }
      ],
      "stateMutability": "nonpayable",
      "type": "function"
    },
    {
      "inputs": [],
      "name": "balance",
      "outputs": [
        {
          "internalType": "uint256",
          "name": "",
          "type": "uint256"
        }
      ],
      "stateMutability": "view",
      "type": "function",
      "constant": true
    },
    {
      "inputs": [
        {
          "internalType": "uint256",
          "name": "_amount",
          "type": "uint256"
        }
      ],
      "name": "deposit",
      "outputs": [],
      "stateMutability": "nonpayable",
      "type": "function"
    },
    {
      "inputs": [
        {
          "internalType": "uint256",
          "name": "_amount",
          "type": "uint256"
        }
      ],
      "name": "withdraw",
      "outputs": [],
      "stateMutability": "nonpayable",
      "type": "function"
    }
  ],
  "bytecode": "0x60806040523480156200001157600080fd5b50604051620026833803806200268383398181016040528101906200003791906200017b565b6040518060400160405280600981526020017f4661726d546f6b656e00000000000000000000000000000000000000000000008152506040518060400160405280600381526020017f46524d00000000000000000000000000000000000000000000000000000000008152508160039081620000b4919062000427565b508060049081620000c6919062000427565b50505080600560006101000a81548173ffffffffffffffffffffffffffffffffffffffff021916908373ffffffffffffffffffffffffffffffffffffffff160217905550506200050e565b600080fd5b600073ffffffffffffffffffffffffffffffffffffffff82169050919050565b6000620001438262000116565b9050919050565b620001558162000136565b81146200016157600080fd5b50565b60008151905062000175816200014a565b92915050565b60006020828403121562000194576200019362000111565b5b6000620001a48482850162000164565b91505092915050565b600081519050919050565b7f4e487b7100000000000000000000000000000000000000000000000000000000600052604160045260246000fd5b7f4e487b7100000000000000000000000000000000000000000000000000000000600052602260045260246000fd5b600060028204905060018216806200022f57607f821691505b602082108103620002455762000244620001e7565b5b50919050565b60008190508160005260206000209050919050565b60006020601f8301049050919050565b600082821b905092915050565b600060088302620002af7fffffffffffffffffffffffffffffffffffffffffffffffffffffffffffffffff8262000270565b620002bb868362000270565b95508019841693508086168417925050509392505050565b6000819050919050565b6000819050919050565b60006200030862000302620002fc84620002d3565b620002dd565b620002d3565b9050919050565b6000819050919050565b6200032483620002e7565b6200033c62000333826200030f565b8484546200027d565b825550505050565b600090565b6200035362000344565b6200036081848462000319565b505050565b5b8181101562000388576200037c60008262000349565b60018101905062000366565b5050565b601f821115620003d757620003a1816200024b565b620003ac8462000260565b81016020851015620003bc578190505b620003d4620003cb8562000260565b83018262000365565b50505b505050565b600082821c905092915050565b6000620003fc60001984600802620003dc565b1980831691505092915050565b6000620004178383620003e9565b9150826002028217905092915050565b6200043282620001ad565b67ffffffffffffffff8111156200044e576200044d620001b8565b5b6200045a825462000216565b620004678282856200038c565b600060209050601f8311600181146200049f57600084156200048a578287015190505b62000496858262000409565b86555062000506565b601f198416620004af866200024b565b60005b82811015620004d957848901518255600182019150602085019450602081019050620004b2565b86831015620004f95784890151620004f5601f891682620003e9565b8355505b6001600288020188555050505b505050505050565b612165806200051e6000396000f3fe608060405234801561001057600080fd5b50600436106100f55760003560e01c806370a0823111610097578063b69ef8a811610066578063b69ef8a8146102ae578063b6b55f25146102cc578063dd62ed3e146102e8578063fc0c546a14610318576100f5565b806370a082311461020057806395d89b4114610230578063a457c2d71461024e578063a9059cbb1461027e576100f5565b806323b872dd116100d357806323b872dd146101665780632e1a7d4d14610196578063313ce567146101b257806339509351146101d0576100f5565b806306fdde03146100fa578063095ea7b31461011857806318160ddd14610148575b600080fd5b610102610336565b60405161010f9190611458565b60405180910390f35b610132600480360381019061012d9190611513565b6103c8565b60405161013f919061156e565b60405180910390f35b6101506103eb565b60405161015d9190611598565b60405180910390f35b610180600480360381019061017b91906115b3565b6103f5565b60405161018d919061156e565b60405180910390f35b6101b060048036038101906101ab9190611606565b610424565b005b6101ba61047e565b6040516101c7919061164f565b60405180910390f35b6101ea60048036038101906101e59190611513565b610487565b6040516101f7919061156e565b60405180910390f35b61021a6004803603810190610215919061166a565b6104be565b6040516102279190611598565b60405180910390f35b610238610506565b6040516102459190611458565b60405180910390f35b61026860048036038101906102639190611513565b610598565b604051610275919061156e565b60405180910390f35b61029860048036038101906102939190611513565b61060f565b6040516102a5919061156e565b60405180910390f35b6102b6610632565b6040516102c39190611598565b60405180910390f35b6102e660048036038101906102e19190611606565b6106d5565b005b61030260048036038101906102fd9190611697565b610774565b60405161030f9190611598565b60405180910390f35b6103206107fb565b60405161032d9190611736565b60405180910390f35b60606003805461034590611780565b80601f016020809104026020016040519081016040528092919081815260200182805461037190611780565b80156103be5780601f10610393576101008083540402835291602001916103be565b820191906000526020600020905b8154815290600101906020018083116103a157829003601f168201915b5050505050905090565b6000806103d3610821565b90506103e0818585610829565b600191505092915050565b6000600254905090565b600080610400610821565b905061040d8582856109f2565b610418858585610a7e565b60019150509392505050565b61042e3382610cfd565b61047b3382600560009054906101000a900473ffffffffffffffffffffffffffffffffffffffff1673ffffffffffffffffffffffffffffffffffffffff16610ed39092919063ffffffff16565b50565b60006012905090565b600080610492610821565b90506104b38185856104a48589610774565b6104ae91906117e0565b610829565b600191505092915050565b60008060008373ffffffffffffffffffffffffffffffffffffffff1673ffffffffffffffffffffffffffffffffffffffff168152602001908152602001600020549050919050565b60606004805461051590611780565b80601f016020809104026020016040519081016040528092919081815260200182805461054190611780565b801561058e5780601f106105635761010080835404028352916020019161058e565b820191906000526020600020905b81548152906001019060200180831161057157829003601f168201915b5050505050905090565b6000806105a3610821565b905060006105b18286610774565b9050838110156105f6576040517f08c379a00000000000000000000000000000000000000000000000000000000081526004016105ed90611886565b60405180910390fd5b6106038286868403610829565b60019250505092915050565b60008061061a610821565b9050610627818585610a7e565b600191505092915050565b6000600560009054906101000a900473ffffffffffffffffffffffffffffffffffffffff1673ffffffffffffffffffffffffffffffffffffffff166370a08231306040518263ffffffff1660e01b815260040161068f91906118b5565b602060405180830381865afa1580156106ac573d6000803e3d6000fd5b505050506040513d601f19601f820116820180604052508101906106d091906118e5565b905090565b60008111610718576040517f08c379a000000000000000000000000000000000000000000000000000000000815260040161070f9061195e565b60405180910390fd5b610767333083600560009054906101000a900473ffffffffffffffffffffffffffffffffffffffff1673ffffffffffffffffffffffffffffffffffffffff16610f59909392919063ffffffff16565b6107713382610fe2565b50565b6000600160008473ffffffffffffffffffffffffffffffffffffffff1673ffffffffffffffffffffffffffffffffffffffff16815260200190815260200160002060008373ffffffffffffffffffffffffffffffffffffffff1673ffffffffffffffffffffffffffffffffffffffff16815260200190815260200160002054905092915050565b600560009054906101000a900473ffffffffffffffffffffffffffffffffffffffff1681565b600033905090565b600073ffffffffffffffffffffffffffffffffffffffff168373ffffffffffffffffffffffffffffffffffffffff1603610898576040517f08c379a000000000000000000000000000000000000000000000000000000000815260040161088f906119f0565b60405180910390fd5b600073ffffffffffffffffffffffffffffffffffffffff168273ffffffffffffffffffffffffffffffffffffffff1603610907576040517f08c379a00000000000000000000000000000000000000000000000000000000081526004016108fe90611a82565b60405180910390fd5b80600160008573ffffffffffffffffffffffffffffffffffffffff1673ffffffffffffffffffffffffffffffffffffffff16815260200190815260200160002060008473ffffffffffffffffffffffffffffffffffffffff1673ffffffffffffffffffffffffffffffffffffffff168152602001908152602001600020819055508173ffffffffffffffffffffffffffffffffffffffff168373ffffffffffffffffffffffffffffffffffffffff167f8c5be1e5ebec7d5bd14f71427d1e84f3dd0314c0f7b2291e5b200ac8c7c3b925836040516109e59190611598565b60405180910390a3505050565b60006109fe8484610774565b90507fffffffffffffffffffffffffffffffffffffffffffffffffffffffffffffffff8114610a785781811015610a6a576040517f08c379a0000000000000000000000000000000000000000000000000000000008152600401610a6190611aee565b60405180910390fd5b610a778484848403610829565b5b50505050565b600073ffffffffffffffffffffffffffffffffffffffff168373ffffffffffffffffffffffffffffffffffffffff1603610aed576040517f08c379a0000000000000000000000000000000000000000000000000000000008152600401610ae490611b80565b60405180910390fd5b600073ffffffffffffffffffffffffffffffffffffffff168273ffffffffffffffffffffffffffffffffffffffff1603610b5c576040517f08c379a0000000000000000000000000000000000000000000000000000000008152600401610b5390611c12565b60405180910390fd5b610b67838383611141565b60008060008573ffffffffffffffffffffffffffffffffffffffff1673ffffffffffffffffffffffffffffffffffffffff16815260200190815260200160002054905081811015610bed576040517f08c379a0000000000000000000000000000000000000000000000000000000008152600401610be490611ca4565b60405180910390fd5b8181036000808673ffffffffffffffffffffffffffffffffffffffff1673ffffffffffffffffffffffffffffffffffffffff16815260200190815260200160002081905550816000808573ffffffffffffffffffffffffffffffffffffffff1673ffffffffffffffffffffffffffffffffffffffff1681526020019081526020016000206000828254610c8091906117e0565b925050819055508273ffffffffffffffffffffffffffffffffffffffff168473ffffffffffffffffffffffffffffffffffffffff167fddf252ad1be2c89b69c2b068fc378daa952ba7f163c4a11628f55a4df523b3ef84604051610ce49190611598565b60405180910390a3610cf7848484611146565b50505050565b600073ffffffffffffffffffffffffffffffffffffffff168273ffffffffffffffffffffffffffffffffffffffff1603610d6c576040517f08c379a0000000000000000000000000000000000000000000000000000000008152600401610d6390611d36565b60405180910390fd5b610d7882600083611141565b60008060008473ffffffffffffffffffffffffffffffffffffffff1673ffffffffffffffffffffffffffffffffffffffff16815260200190815260200160002054905081811015610dfe576040517f08c379a0000000000000000000000000000000000000000000000000000000008152600401610df590611dc8565b60405180910390fd5b8181036000808573ffffffffffffffffffffffffffffffffffffffff1673ffffffffffffffffffffffffffffffffffffffff168152602001908152602001600020819055508160026000828254610e559190611de8565b92505081905550600073ffffffffffffffffffffffffffffffffffffffff168373ffffffffffffffffffffffffffffffffffffffff167fddf252ad1be2c89b69c2b068fc378daa952ba7f163c4a11628f55a4df523b3ef84604051610eba9190611598565b60405180910390a3610ece83600084611146565b505050565b610f548363a9059cbb60e01b8484604051602401610ef2929190611e1c565b604051602081830303815290604052907bffffffffffffffffffffffffffffffffffffffffffffffffffffffff19166020820180517bffffffffffffffffffffffffffffffffffffffffffffffffffffffff838183161783525050505061114b565b505050565b610fdc846323b872dd60e01b858585604051602401610f7a93929190611e45565b604051602081830303815290604052907bffffffffffffffffffffffffffffffffffffffffffffffffffffffff19166020820180517bffffffffffffffffffffffffffffffffffffffffffffffffffffffff838183161783525050505061114b565b50505050565b600073ffffffffffffffffffffffffffffffffffffffff168273ffffffffffffffffffffffffffffffffffffffff1603611051576040517f08c379a000000000000000000000000000000000000000000000000000000000815260040161104890611ec8565b60405180910390fd5b61105d60008383611141565b806002600082825461106f91906117e0565b92505081905550806000808473ffffffffffffffffffffffffffffffffffffffff1673ffffffffffffffffffffffffffffffffffffffff16815260200190815260200160002060008282546110c491906117e0565b925050819055508173ffffffffffffffffffffffffffffffffffffffff16600073ffffffffffffffffffffffffffffffffffffffff167fddf252ad1be2c89b69c2b068fc378daa952ba7f163c4a11628f55a4df523b3ef836040516111299190611598565b60405180910390a361113d60008383611146565b5050565b505050565b505050565b60006111ad826040518060400160405280602081526020017f5361666545524332303a206c6f772d6c6576656c2063616c6c206661696c65648152508573ffffffffffffffffffffffffffffffffffffffff166112129092919063ffffffff16565b905060008151111561120d57808060200190518101906111cd9190611f14565b61120c576040517f08c379a000000000000000000000000000000000000000000000000000000000815260040161120390611fb3565b60405180910390fd5b5b505050565b6060611221848460008561122a565b90509392505050565b60608247101561126f576040517f08c379a000000000000000000000000000000000000000000000000000000000815260040161126690612045565b60405180910390fd5b6112788561133e565b6112b7576040517f08c379a00000000000000000000000000000000000000000000000000000000081526004016112ae906120b1565b60405180910390fd5b6000808673ffffffffffffffffffffffffffffffffffffffff1685876040516112e09190612118565b60006040518083038185875af1925050503d806000811461131d576040519150601f19603f3d011682016040523d82523d6000602084013e611322565b606091505b5091509150611332828286611361565b92505050949350505050565b6000808273ffffffffffffffffffffffffffffffffffffffff163b119050919050565b60608315611371578290506113c1565b6000835111156113845782518084602001fd5b816040517f08c379a00000000000000000000000000000000000000000000000000000000081526004016113b89190611458565b60405180910390fd5b9392505050565b600081519050919050565b600082825260208201905092915050565b60005b838110156114025780820151818401526020810190506113e7565b60008484015250505050565b6000601f19601f8301169050919050565b600061142a826113c8565b61143481856113d3565b93506114448185602086016113e4565b61144d8161140e565b840191505092915050565b60006020820190508181036000830152611472818461141f565b905092915050565b600080fd5b600073ffffffffffffffffffffffffffffffffffffffff82169050919050565b60006114aa8261147f565b9050919050565b6114ba8161149f565b81146114c557600080fd5b50565b6000813590506114d7816114b1565b92915050565b6000819050919050565b6114f0816114dd565b81146114fb57600080fd5b50565b60008135905061150d816114e7565b92915050565b6000806040838503121561152a5761152961147a565b5b6000611538858286016114c8565b9250506020611549858286016114fe565b9150509250929050565b60008115159050919050565b61156881611553565b82525050565b6000602082019050611583600083018461155f565b92915050565b611592816114dd565b82525050565b60006020820190506115ad6000830184611589565b92915050565b6000806000606084860312156115cc576115cb61147a565b5b60006115da868287016114c8565b93505060206115eb868287016114c8565b92505060406115fc868287016114fe565b9150509250925092565b60006020828403121561161c5761161b61147a565b5b600061162a848285016114fe565b91505092915050565b600060ff82169050919050565b61164981611633565b82525050565b60006020820190506116646000830184611640565b92915050565b6000602082840312156116805761167f61147a565b5b600061168e848285016114c8565b91505092915050565b600080604083850312156116ae576116ad61147a565b5b60006116bc858286016114c8565b92505060206116cd858286016114c8565b9150509250929050565b6000819050919050565b60006116fc6116f76116f28461147f565b6116d7565b61147f565b9050919050565b600061170e826116e1565b9050919050565b600061172082611703565b9050919050565b61173081611715565b82525050565b600060208201905061174b6000830184611727565b92915050565b7f4e487b7100000000000000000000000000000000000000000000000000000000600052602260045260246000fd5b6000600282049050600182168061179857607f821691505b6020821081036117ab576117aa611751565b5b50919050565b7f4e487b7100000000000000000000000000000000000000000000000000000000600052601160045260246000fd5b60006117eb826114dd565b91506117f6836114dd565b925082820190508082111561180e5761180d6117b1565b5b92915050565b7f45524332303a2064656372656173656420616c6c6f77616e63652062656c6f7760008201527f207a65726f000000000000000000000000000000000000000000000000000000602082015250565b60006118706025836113d3565b915061187b82611814565b604082019050919050565b6000602082019050818103600083015261189f81611863565b9050919050565b6118af8161149f565b82525050565b60006020820190506118ca60008301846118a6565b92915050565b6000815190506118df816114e7565b92915050565b6000602082840312156118fb576118fa61147a565b5b6000611909848285016118d0565b91505092915050565b7f616d6f756e742063616e6e6f7420626520300000000000000000000000000000600082015250565b60006119486012836113d3565b915061195382611912565b602082019050919050565b600060208201905081810360008301526119778161193b565b9050919050565b7f45524332303a20617070726f76652066726f6d20746865207a65726f2061646460008201527f7265737300000000000000000000000000000000000000000000000000000000602082015250565b60006119da6024836113d3565b91506119e58261197e565b604082019050919050565b60006020820190508181036000830152611a09816119cd565b9050919050565b7f45524332303a20617070726f766520746f20746865207a65726f20616464726560008201527f7373000000000000000000000000000000000000000000000000000000000000602082015250565b6000611a6c6022836113d3565b9150611a7782611a10565b604082019050919050565b60006020820190508181036000830152611a9b81611a5f565b9050919050565b7f45524332303a20696e73756666696369656e7420616c6c6f77616e6365000000600082015250565b6000611ad8601d836113d3565b9150611ae382611aa2565b602082019050919050565b60006020820190508181036000830152611b0781611acb565b9050919050565b7f45524332303a207472616e736665722066726f6d20746865207a65726f20616460008201527f6472657373000000000000000000000000000000000000000000000000000000602082015250565b6000611b6a6025836113d3565b9150611b7582611b0e565b604082019050919050565b60006020820190508181036000830152611b9981611b5d565b9050919050565b7f45524332303a207472616e7366657220746f20746865207a65726f206164647260008201527f6573730000000000000000000000000000000000000000000000000000000000602082015250565b6000611bfc6023836113d3565b9150611c0782611ba0565b604082019050919050565b60006020820190508181036000830152611c2b81611bef565b9050919050565b7f45524332303a207472616e7366657220616d6f756e742065786365656473206260008201527f616c616e63650000000000000000000000000000000000000000000000000000602082015250565b6000611c8e6026836113d3565b9150611c9982611c32565b604082019050919050565b60006020820190508181036000830152611cbd81611c81565b9050919050565b7f45524332303a206275726e2066726f6d20746865207a65726f2061646472657360008201527f7300000000000000000000000000000000000000000000000000000000000000602082015250565b6000611d206021836113d3565b9150611d2b82611cc4565b604082019050919050565b60006020820190508181036000830152611d4f81611d13565b9050919050565b7f45524332303a206275726e20616d6f756e7420657863656564732062616c616e60008201527f6365000000000000000000000000000000000000000000000000000000000000602082015250565b6000611db26022836113d3565b9150611dbd82611d56565b604082019050919050565b60006020820190508181036000830152611de181611da5565b9050919050565b6000611df3826114dd565b9150611dfe836114dd565b9250828203905081811115611e1657611e156117b1565b5b92915050565b6000604082019050611e3160008301856118a6565b611e3e6020830184611589565b9392505050565b6000606082019050611e5a60008301866118a6565b611e6760208301856118a6565b611e746040830184611589565b949350505050565b7f45524332303a206d696e7420746f20746865207a65726f206164647265737300600082015250565b6000611eb2601f836113d3565b9150611ebd82611e7c565b602082019050919050565b60006020820190508181036000830152611ee181611ea5565b9050919050565b611ef181611553565b8114611efc57600080fd5b50565b600081519050611f0e81611ee8565b92915050565b600060208284031215611f2a57611f2961147a565b5b6000611f3884828501611eff565b91505092915050565b7f5361666545524332303a204552433230206f7065726174696f6e20646964206e60008201527f6f74207375636365656400000000000000000000000000000000000000000000602082015250565b6000611f9d602a836113d3565b9150611fa882611f41565b604082019050919050565b60006020820190508181036000830152611fcc81611f90565b9050919050565b7f416464726573733a20696e73756666696369656e742062616c616e636520666f60008201527f722063616c6c0000000000000000000000000000000000000000000000000000602082015250565b600061202f6026836113d3565b915061203a82611fd3565b604082019050919050565b6000602082019050818103600083015261205e81612022565b9050919050565b7f416464726573733a2063616c6c20746f206e6f6e2d636f6e7472616374000000600082015250565b600061209b601d836113d3565b91506120a682612065565b602082019050919050565b600060208201905081810360008301526120ca8161208e565b9050919050565b600081519050919050565b600081905092915050565b60006120f2826120d1565b6120fc81856120dc565b935061210c8185602086016113e4565b80840191505092915050565b600061212482846120e7565b91508190509291505056fea26469706673582212204a7532373fd9564e5d2e30e0b838c60a53c0e9e88d3b38d10dae78d3aa79e9b364736f6c63430008100033",
  "immutableReferences": {},
  "source": "pragma solidity ^0.8.0;\n\nimport \"@openzeppelin/contracts/token/ERC20/IERC20.sol\";\nimport \"@openzeppelin/contracts/utils/Address.sol\";\nimport \"@openzeppelin/contracts/token/ERC20/utils/SafeERC20.sol\";\nimport \"@openzeppelin/contracts/token/ERC20/ERC20.sol\";\n\ncontract FarmToken is ERC20 {\n    using Address for address;\n    //using SafeMath for uint256; // As of Solidity v0.8.0, mathematical operations can be done safely without the need for SafeMath\n    using SafeERC20 for IERC20;\n\n    IERC20 public token;\n\n    constructor(address _token) public ERC20(\"FarmToken\", \"FRM\")\n    {\n        token = IERC20(_token);\n    }\n    function balance() public view returns (uint256) {\n        return token.balanceOf(address(this));\n    }\n\n    function deposit(uint256 _amount) public {\n        // Amount must be greater than zero\n        require(_amount > 0, \"amount cannot be 0\");\n\n        // Transfer MyToken to smart contract\n        token.safeTransferFrom(msg.sender, address(this), _amount);\n\n        // Mint FarmToken to msg sender\n        _mint(msg.sender, _amount);\n    }\n\n    function withdraw(uint256 _amount) public {\n        // Burn FarmTokens from msg sender\n        _burn(msg.sender, _amount);\n\n        // Transfer MyTokens from this smart contract to msg sender\n        token.safeTransfer(msg.sender, _amount);\n    }\n\n}",
  "sourcePath": "C:\\Dev\\web3\\farm\\contracts\\FarmToken.sol",
  "compiler": {
    "name": "solc",
    "version": "0.8.16+commit.07a7930e.Emscripten.clang"
  },
  "schemaVersion": "3.4.9",
  "updatedAt": "2022-09-04T15:01:43.218Z",
  "networkType": "ethereum",
  "devdoc": {
    "kind": "dev",
    "methods": {
      "allowance(address,address)": {
        "details": "See {IERC20-allowance}."
      },
      "approve(address,uint256)": {
        "details": "See {IERC20-approve}. NOTE: If `amount` is the maximum `uint256`, the allowance is not updated on `transferFrom`. This is semantically equivalent to an infinite approval. Requirements: - `spender` cannot be the zero address."
      },
      "balanceOf(address)": {
        "details": "See {IERC20-balanceOf}."
      },
      "decimals()": {
        "details": "Returns the number of decimals used to get its user representation. For example, if `decimals` equals `2`, a balance of `505` tokens should be displayed to a user as `5.05` (`505 / 10 ** 2`). Tokens usually opt for a value of 18, imitating the relationship between Ether and Wei. This is the value {ERC20} uses, unless this function is overridden; NOTE: This information is only used for _display_ purposes: it in no way affects any of the arithmetic of the contract, including {IERC20-balanceOf} and {IERC20-transfer}."
      },
      "decreaseAllowance(address,uint256)": {
        "details": "Atomically decreases the allowance granted to `spender` by the caller. This is an alternative to {approve} that can be used as a mitigation for problems described in {IERC20-approve}. Emits an {Approval} event indicating the updated allowance. Requirements: - `spender` cannot be the zero address. - `spender` must have allowance for the caller of at least `subtractedValue`."
      },
      "increaseAllowance(address,uint256)": {
        "details": "Atomically increases the allowance granted to `spender` by the caller. This is an alternative to {approve} that can be used as a mitigation for problems described in {IERC20-approve}. Emits an {Approval} event indicating the updated allowance. Requirements: - `spender` cannot be the zero address."
      },
      "name()": {
        "details": "Returns the name of the token."
      },
      "symbol()": {
        "details": "Returns the symbol of the token, usually a shorter version of the name."
      },
      "totalSupply()": {
        "details": "See {IERC20-totalSupply}."
      },
      "transfer(address,uint256)": {
        "details": "See {IERC20-transfer}. Requirements: - `to` cannot be the zero address. - the caller must have a balance of at least `amount`."
      },
      "transferFrom(address,address,uint256)": {
        "details": "See {IERC20-transferFrom}. Emits an {Approval} event indicating the updated allowance. This is not required by the EIP. See the note at the beginning of {ERC20}. NOTE: Does not update the allowance if the current allowance is the maximum `uint256`. Requirements: - `from` and `to` cannot be the zero address. - `from` must have a balance of at least `amount`. - the caller must have allowance for ``from``'s tokens of at least `amount`."
      }
    },
    "version": 1
  },
  "userdoc": {
    "kind": "user",
    "methods": {},
    "version": 1
  }
}